{
  "contractName": "FundingDAO",
  "abi": [
    {
      "anonymous": false,
      "inputs": [
        {
          "indexed": true,
          "internalType": "address",
          "name": "fromAddress",
          "type": "address"
        },
        {
          "indexed": false,
          "internalType": "uint256",
          "name": "amount",
          "type": "uint256"
        }
      ],
      "name": "NewMember",
      "type": "event"
    },
    {
      "anonymous": false,
      "inputs": [
        {
          "indexed": true,
          "internalType": "address",
          "name": "proposer",
          "type": "address"
        },
        {
          "indexed": false,
          "internalType": "uint256",
          "name": "amount",
          "type": "uint256"
        }
      ],
      "name": "NewProposal",
      "type": "event"
    },
    {
      "anonymous": false,
      "inputs": [
        {
          "indexed": true,
          "internalType": "address",
          "name": "stakeholder",
          "type": "address"
        },
        {
          "indexed": true,
          "internalType": "address",
          "name": "projectAddress",
          "type": "address"
        },
        {
          "indexed": false,
          "internalType": "uint256",
          "name": "amount",
          "type": "uint256"
        }
      ],
      "name": "Payment",
      "type": "event"
    },
    {
      "anonymous": false,
      "inputs": [
        {
          "indexed": true,
          "internalType": "bytes32",
          "name": "role",
          "type": "bytes32"
        },
        {
          "indexed": true,
          "internalType": "bytes32",
          "name": "previousAdminRole",
          "type": "bytes32"
        },
        {
          "indexed": true,
          "internalType": "bytes32",
          "name": "newAdminRole",
          "type": "bytes32"
        }
      ],
      "name": "RoleAdminChanged",
      "type": "event"
    },
    {
      "anonymous": false,
      "inputs": [
        {
          "indexed": true,
          "internalType": "bytes32",
          "name": "role",
          "type": "bytes32"
        },
        {
          "indexed": true,
          "internalType": "address",
          "name": "account",
          "type": "address"
        },
        {
          "indexed": true,
          "internalType": "address",
          "name": "sender",
          "type": "address"
        }
      ],
      "name": "RoleGranted",
      "type": "event"
    },
    {
      "anonymous": false,
      "inputs": [
        {
          "indexed": true,
          "internalType": "bytes32",
          "name": "role",
          "type": "bytes32"
        },
        {
          "indexed": true,
          "internalType": "address",
          "name": "account",
          "type": "address"
        },
        {
          "indexed": true,
          "internalType": "address",
          "name": "sender",
          "type": "address"
        }
      ],
      "name": "RoleRevoked",
      "type": "event"
    },
    {
      "inputs": [],
      "name": "DEFAULT_ADMIN_ROLE",
      "outputs": [
        {
          "internalType": "bytes32",
          "name": "",
          "type": "bytes32"
        }
      ],
      "stateMutability": "view",
      "type": "function"
    },
    {
      "inputs": [],
      "name": "MEMBER",
      "outputs": [
        {
          "internalType": "bytes32",
          "name": "",
          "type": "bytes32"
        }
      ],
      "stateMutability": "view",
      "type": "function"
    },
    {
      "inputs": [],
      "name": "STAKEHOLDER",
      "outputs": [
        {
          "internalType": "bytes32",
          "name": "",
          "type": "bytes32"
        }
      ],
      "stateMutability": "view",
      "type": "function"
    },
    {
      "inputs": [
        {
          "internalType": "bytes32",
          "name": "role",
          "type": "bytes32"
        }
      ],
      "name": "getRoleAdmin",
      "outputs": [
        {
          "internalType": "bytes32",
          "name": "",
          "type": "bytes32"
        }
      ],
      "stateMutability": "view",
      "type": "function"
    },
    {
      "inputs": [
        {
          "internalType": "bytes32",
          "name": "role",
          "type": "bytes32"
        },
        {
          "internalType": "address",
          "name": "account",
          "type": "address"
        }
      ],
      "name": "grantRole",
      "outputs": [],
      "stateMutability": "nonpayable",
      "type": "function"
    },
    {
      "inputs": [
        {
          "internalType": "bytes32",
          "name": "role",
          "type": "bytes32"
        },
        {
          "internalType": "address",
          "name": "account",
          "type": "address"
        }
      ],
      "name": "hasRole",
      "outputs": [
        {
          "internalType": "bool",
          "name": "",
          "type": "bool"
        }
      ],
      "stateMutability": "view",
      "type": "function"
    },
    {
      "inputs": [],
      "name": "proposalsCount",
      "outputs": [
        {
          "internalType": "uint256",
          "name": "",
          "type": "uint256"
        }
      ],
      "stateMutability": "view",
      "type": "function"
    },
    {
      "inputs": [
        {
          "internalType": "bytes32",
          "name": "role",
          "type": "bytes32"
        },
        {
          "internalType": "address",
          "name": "account",
          "type": "address"
        }
      ],
      "name": "renounceRole",
      "outputs": [],
      "stateMutability": "nonpayable",
      "type": "function"
    },
    {
      "inputs": [
        {
          "internalType": "bytes32",
          "name": "role",
          "type": "bytes32"
        },
        {
          "internalType": "address",
          "name": "account",
          "type": "address"
        }
      ],
      "name": "revokeRole",
      "outputs": [],
      "stateMutability": "nonpayable",
      "type": "function"
    },
    {
      "inputs": [
        {
          "internalType": "bytes4",
          "name": "interfaceId",
          "type": "bytes4"
        }
      ],
      "name": "supportsInterface",
      "outputs": [
        {
          "internalType": "bool",
          "name": "",
          "type": "bool"
        }
      ],
      "stateMutability": "view",
      "type": "function"
    },
    {
      "inputs": [
        {
          "internalType": "string",
          "name": "title",
          "type": "string"
        },
        {
          "internalType": "string",
          "name": "desc",
          "type": "string"
        },
        {
          "internalType": "address",
          "name": "receiverAddress",
          "type": "address"
        },
        {
          "internalType": "uint256",
          "name": "amount",
          "type": "uint256"
        },
        {
          "internalType": "string",
          "name": "imageId",
          "type": "string"
        }
      ],
      "name": "createProposal",
      "outputs": [],
      "stateMutability": "payable",
      "type": "function"
    },
    {
      "inputs": [],
      "name": "getAllProposals",
      "outputs": [
        {
          "components": [
            {
              "internalType": "uint256",
              "name": "id",
              "type": "uint256"
            },
            {
              "internalType": "uint256",
              "name": "amount",
              "type": "uint256"
            },
            {
              "internalType": "uint256",
              "name": "livePeriod",
              "type": "uint256"
            },
            {
              "internalType": "uint256",
              "name": "voteInFavor",
              "type": "uint256"
            },
            {
              "internalType": "uint256",
              "name": "voteAgainst",
              "type": "uint256"
            },
            {
              "internalType": "string",
              "name": "title",
              "type": "string"
            },
            {
              "internalType": "string",
              "name": "desc",
              "type": "string"
            },
            {
              "internalType": "bool",
              "name": "isCompleted",
              "type": "bool"
            },
            {
              "internalType": "bool",
              "name": "paid",
              "type": "bool"
            },
            {
              "internalType": "bool",
              "name": "isPaid",
              "type": "bool"
            },
            {
              "internalType": "address payable",
              "name": "receiverAddress",
              "type": "address"
            },
            {
              "internalType": "address",
              "name": "proposer",
              "type": "address"
            },
            {
              "internalType": "uint256",
              "name": "totalFundRaised",
              "type": "uint256"
            },
            {
              "components": [
                {
                  "internalType": "address",
                  "name": "payer",
                  "type": "address"
                },
                {
                  "internalType": "uint256",
                  "name": "amount",
                  "type": "uint256"
                },
                {
                  "internalType": "uint256",
                  "name": "timestamp",
                  "type": "uint256"
                }
              ],
              "internalType": "struct FundingDAO.Funding[]",
              "name": "funders",
              "type": "tuple[]"
            },
            {
              "internalType": "string",
              "name": "imageId",
              "type": "string"
            }
          ],
          "internalType": "struct FundingDAO.Proposal[]",
          "name": "",
          "type": "tuple[]"
        }
      ],
      "stateMutability": "view",
      "type": "function"
    },
    {
      "inputs": [
        {
          "internalType": "uint256",
          "name": "proposalId",
          "type": "uint256"
        }
      ],
      "name": "getProposal",
      "outputs": [
        {
          "components": [
            {
              "internalType": "uint256",
              "name": "id",
              "type": "uint256"
            },
            {
              "internalType": "uint256",
              "name": "amount",
              "type": "uint256"
            },
            {
              "internalType": "uint256",
              "name": "livePeriod",
              "type": "uint256"
            },
            {
              "internalType": "uint256",
              "name": "voteInFavor",
              "type": "uint256"
            },
            {
              "internalType": "uint256",
              "name": "voteAgainst",
              "type": "uint256"
            },
            {
              "internalType": "string",
              "name": "title",
              "type": "string"
            },
            {
              "internalType": "string",
              "name": "desc",
              "type": "string"
            },
            {
              "internalType": "bool",
              "name": "isCompleted",
              "type": "bool"
            },
            {
              "internalType": "bool",
              "name": "paid",
              "type": "bool"
            },
            {
              "internalType": "bool",
              "name": "isPaid",
              "type": "bool"
            },
            {
              "internalType": "address payable",
              "name": "receiverAddress",
              "type": "address"
            },
            {
              "internalType": "address",
              "name": "proposer",
              "type": "address"
            },
            {
              "internalType": "uint256",
              "name": "totalFundRaised",
              "type": "uint256"
            },
            {
              "components": [
                {
                  "internalType": "address",
                  "name": "payer",
                  "type": "address"
                },
                {
                  "internalType": "uint256",
                  "name": "amount",
                  "type": "uint256"
                },
                {
                  "internalType": "uint256",
                  "name": "timestamp",
                  "type": "uint256"
                }
              ],
              "internalType": "struct FundingDAO.Funding[]",
              "name": "funders",
              "type": "tuple[]"
            },
            {
              "internalType": "string",
              "name": "imageId",
              "type": "string"
            }
          ],
          "internalType": "struct FundingDAO.Proposal",
          "name": "",
          "type": "tuple"
        }
      ],
      "stateMutability": "view",
      "type": "function"
    },
    {
      "inputs": [],
      "name": "getVotes",
      "outputs": [
        {
          "internalType": "uint256[]",
          "name": "",
          "type": "uint256[]"
        }
      ],
      "stateMutability": "view",
      "type": "function"
    },
    {
      "inputs": [],
      "name": "getStakeholderBal",
      "outputs": [
        {
          "internalType": "uint256",
          "name": "",
          "type": "uint256"
        }
      ],
      "stateMutability": "view",
      "type": "function"
    },
    {
      "inputs": [],
      "name": "getMemberBal",
      "outputs": [
        {
          "internalType": "uint256",
          "name": "",
          "type": "uint256"
        }
      ],
      "stateMutability": "view",
      "type": "function"
    },
    {
      "inputs": [],
      "name": "isStakeholder",
      "outputs": [
        {
          "internalType": "bool",
          "name": "",
          "type": "bool"
        }
      ],
      "stateMutability": "view",
      "type": "function"
    },
    {
      "inputs": [],
      "name": "isMember",
      "outputs": [
        {
          "internalType": "bool",
          "name": "",
          "type": "bool"
        }
      ],
      "stateMutability": "view",
      "type": "function"
    },
    {
      "inputs": [
        {
          "internalType": "uint256",
          "name": "proposalId",
          "type": "uint256"
        },
        {
          "internalType": "bool",
          "name": "inFavour",
          "type": "bool"
        }
      ],
      "name": "vote",
      "outputs": [],
      "stateMutability": "nonpayable",
      "type": "function"
    },
    {
      "inputs": [
        {
          "internalType": "uint256",
          "name": "proposalId",
          "type": "uint256"
        },
        {
          "internalType": "uint256",
          "name": "fundAmount",
          "type": "uint256"
        }
      ],
      "name": "provideFunds",
      "outputs": [],
      "stateMutability": "payable",
      "type": "function"
    },
    {
      "inputs": [
        {
          "internalType": "uint256",
          "name": "proposalId",
          "type": "uint256"
        }
      ],
      "name": "releaseFunding",
      "outputs": [],
      "stateMutability": "payable",
      "type": "function"
    },
    {
      "inputs": [],
      "name": "createStakeholder",
      "outputs": [],
      "stateMutability": "payable",
      "type": "function"
    }
  ],
  "bytecode": "0x6080604052600060025534801561001557600080fd5b506001600081905550613a978061002d6000396000f3fe6080604052600436106101355760003560e01c806391d14854116100ab578063c7f758a81161006f578063c7f758a8146103ef578063c9d27afe1461042c578063cceb68f514610455578063d02982cf14610480578063d547741f146104ab578063f8d41b96146104d457610135565b806391d1485414610324578063a217fddf14610361578063a8e78b201461038c578063b3bcf752146103a8578063c02146ac146103c457610135565b8063248a9ca3116100fd578063248a9ca3146102235780632f2ff15d1461026057806336568abe146102895780636dd8cdd2146102b25780637ed3a7e7146102dd5780638bc3b92b1461030857610135565b806301ffc9a71461013a5780630a9f46ad146101775780630d2e57ee146101a25780630dc96015146101cd5780631c681a42146101f8575b600080fd5b34801561014657600080fd5b50610161600480360381019061015c9190612525565b6104de565b60405161016e919061256d565b60405180910390f35b34801561018357600080fd5b5061018c610558565b60405161019991906125a1565b60405180910390f35b3480156101ae57600080fd5b506101b761055e565b6040516101c491906125a1565b60405180910390f35b3480156101d957600080fd5b506101e261062c565b6040516101ef919061267a565b60405180910390f35b34801561020457600080fd5b5061020d610748565b60405161021a91906126b5565b60405180910390f35b34801561022f57600080fd5b5061024a600480360381019061024591906126fc565b61076c565b60405161025791906126b5565b60405180910390f35b34801561026c57600080fd5b5061028760048036038101906102829190612787565b61078c565b005b34801561029557600080fd5b506102b060048036038101906102ab9190612787565b6107ad565b005b3480156102be57600080fd5b506102c7610830565b6040516102d491906125a1565b60405180910390f35b3480156102e957600080fd5b506102f26108fe565b6040516102ff91906126b5565b60405180910390f35b610322600480360381019061031d91906127f3565b610922565b005b34801561033057600080fd5b5061034b60048036038101906103469190612787565b610bae565b604051610358919061256d565b60405180910390f35b34801561036d57600080fd5b50610376610c19565b60405161038391906126b5565b60405180910390f35b6103a660048036038101906103a19190612898565b610c20565b005b6103c260048036038101906103bd9190612974565b610eac565b005b3480156103d057600080fd5b506103d9611041565b6040516103e6919061256d565b60405180910390f35b3480156103fb57600080fd5b5061041660048036038101906104119190612974565b61108a565b6040516104239190612cb9565b60405180910390f35b34801561043857600080fd5b50610453600480360381019061044e9190612d07565b611470565b005b34801561046157600080fd5b5061046a611739565b6040516104779190612f61565b60405180910390f35b34801561048c57600080fd5b50610495611bb2565b6040516104a2919061256d565b60405180910390f35b3480156104b757600080fd5b506104d260048036038101906104cd9190612787565b611bfb565b005b6104dc611c1c565b005b60007f7965db0b000000000000000000000000000000000000000000000000000000007bffffffffffffffffffffffffffffffffffffffffffffffffffffffff1916827bffffffffffffffffffffffffffffffffffffffffffffffffffffffff19161480610551575061055082611ed7565b5b9050919050565b60025481565b6000604051806060016040528060248152602001613a1b602491396105a37fffa60083152bd11704a80cc8c7a409dad8aa74288b454a3ba0e94c0abc7cf16833610bae565b81906105e5576040517f08c379a00000000000000000000000000000000000000000000000000000000081526004016105dc9190612fcd565b60405180910390fd5b50600560003373ffffffffffffffffffffffffffffffffffffffff1673ffffffffffffffffffffffffffffffffffffffff1681526020019081526020016000205491505090565b6060604051806060016040528060288152602001613977602891396106717ff4bb84e1768dd286358a736d195a0b228621173f655a73b89bf8b191ed0ba07d33610bae565b81906106b3576040517f08c379a00000000000000000000000000000000000000000000000000000000081526004016106aa9190612fcd565b60405180910390fd5b50600660003373ffffffffffffffffffffffffffffffffffffffff1673ffffffffffffffffffffffffffffffffffffffff16815260200190815260200160002080548060200260200160405190810160405280929190818152602001828054801561073d57602002820191906000526020600020905b815481526020019060010190808311610729575b505050505091505090565b7fffa60083152bd11704a80cc8c7a409dad8aa74288b454a3ba0e94c0abc7cf16881565b600060016000838152602001908152602001600020600101549050919050565b6107958261076c565b61079e81611f41565b6107a88383611f55565b505050565b6107b5612035565b73ffffffffffffffffffffffffffffffffffffffff168173ffffffffffffffffffffffffffffffffffffffff1614610822576040517f08c379a000000000000000000000000000000000000000000000000000000000815260040161081990613061565b60405180910390fd5b61082c828261203d565b5050565b6000604051806060016040528060288152602001613977602891396108757ff4bb84e1768dd286358a736d195a0b228621173f655a73b89bf8b191ed0ba07d33610bae565b81906108b7576040517f08c379a00000000000000000000000000000000000000000000000000000000081526004016108ae9190612fcd565b60405180910390fd5b50600460003373ffffffffffffffffffffffffffffffffffffffff1673ffffffffffffffffffffffffffffffffffffffff1681526020019081526020016000205491505090565b7ff4bb84e1768dd286358a736d195a0b228621173f655a73b89bf8b191ed0ba07d81565b604051806060016040528060238152602001613a3f602391396109657ff4bb84e1768dd286358a736d195a0b228621173f655a73b89bf8b191ed0ba07d33610bae565b81906109a7576040517f08c379a000000000000000000000000000000000000000000000000000000000815260040161099e9190612fcd565b60405180910390fd5b5060006003600085815260200190815260200160002090508060070160029054906101000a900460ff1615610a11576040517f08c379a0000000000000000000000000000000000000000000000000000000008152600401610a08906130cd565b60405180910390fd5b8060040154816003015411610a5b576040517f08c379a0000000000000000000000000000000000000000000000000000000008152600401610a529061315f565b60405180910390fd5b8060010154816009015410610aa5576040517f08c379a0000000000000000000000000000000000000000000000000000000008152600401610a9c906130cd565b60405180910390fd5b82816009016000828254610ab991906131ae565b9250508190555080600a0160405180606001604052803373ffffffffffffffffffffffffffffffffffffffff16815260200185815260200142815250908060018154018082558091505060019003906000526020600020906003020160009091909190915060008201518160000160006101000a81548173ffffffffffffffffffffffffffffffffffffffff021916908373ffffffffffffffffffffffffffffffffffffffff160217905550602082015181600101556040820151816002015550508060010154816009015410610ba85760018160070160006101000a81548160ff0219169083151502179055505b50505050565b60006001600084815260200190815260200160002060000160008373ffffffffffffffffffffffffffffffffffffffff1673ffffffffffffffffffffffffffffffffffffffff16815260200190815260200160002060009054906101000a900460ff16905092915050565b6000801b81565b60405180606001604052806025815260200161399f60259139610c637fffa60083152bd11704a80cc8c7a409dad8aa74288b454a3ba0e94c0abc7cf16833610bae565b8190610ca5576040517f08c379a0000000000000000000000000000000000000000000000000000000008152600401610c9c9190612fcd565b60405180910390fd5b50674563918244f400003414610cf0576040517f08c379a0000000000000000000000000000000000000000000000000000000008152600401610ce790613254565b60405180910390fd5b6000600254905060006003600083815260200190815260200160002090508181600001819055508888826006019182610d2a9291906134ba565b508a8a826005019182610d3e9291906134ba565b50868160070160036101000a81548173ffffffffffffffffffffffffffffffffffffffff021916908373ffffffffffffffffffffffffffffffffffffffff160217905550338160080160006101000a81548173ffffffffffffffffffffffffffffffffffffffff021916908373ffffffffffffffffffffffffffffffffffffffff1602179055508581600101819055506203f48063ffffffff1642610de391906131ae565b816002018190555060008160070160026101000a81548160ff02191690831515021790555060008160070160006101000a81548160ff021916908315150217905550848482600b019182610e389291906134ba565b5060026000815480929190610e4c9061358a565b91905055503373ffffffffffffffffffffffffffffffffffffffff167f8dfa4a39b973cacc42c5d14d9461d66fd1fda5ea696f7d2a3c44fd9d7f11d04f87604051610e9791906125a1565b60405180910390a25050505050505050505050565b6040518060600160405280602e81526020016139c4602e9139610eef7ff4bb84e1768dd286358a736d195a0b228621173f655a73b89bf8b191ed0ba07d33610bae565b8190610f31576040517f08c379a0000000000000000000000000000000000000000000000000000000008152600401610f289190612fcd565b60405180910390fd5b5060006003600084815260200190815260200160002090508060010154816009015411610f93576040517f08c379a0000000000000000000000000000000000000000000000000000000008152600401610f8a90613644565b60405180910390fd5b8060070160039054906101000a900473ffffffffffffffffffffffffffffffffffffffff1673ffffffffffffffffffffffffffffffffffffffff166108fc82600901549081150290604051600060405180830381858888f19350505050158015611001573d6000803e3d6000fd5b5060018160070160026101000a81548160ff02191690831515021790555060018160070160006101000a81548160ff021916908315150217905550505050565b600080600460003373ffffffffffffffffffffffffffffffffffffffff1673ffffffffffffffffffffffffffffffffffffffff1681526020019081526020016000205411905090565b61109261241b565b60036000838152602001908152602001600020604051806101e001604052908160008201548152602001600182015481526020016002820154815260200160038201548152602001600482015481526020016005820180546110f3906132dd565b80601f016020809104026020016040519081016040528092919081815260200182805461111f906132dd565b801561116c5780601f106111415761010080835404028352916020019161116c565b820191906000526020600020905b81548152906001019060200180831161114f57829003601f168201915b50505050508152602001600682018054611185906132dd565b80601f01602080910402602001604051908101604052809291908181526020018280546111b1906132dd565b80156111fe5780601f106111d3576101008083540402835291602001916111fe565b820191906000526020600020905b8154815290600101906020018083116111e157829003601f168201915b505050505081526020016007820160009054906101000a900460ff161515151581526020016007820160019054906101000a900460ff161515151581526020016007820160029054906101000a900460ff161515151581526020016007820160039054906101000a900473ffffffffffffffffffffffffffffffffffffffff1673ffffffffffffffffffffffffffffffffffffffff1673ffffffffffffffffffffffffffffffffffffffff1681526020016008820160009054906101000a900473ffffffffffffffffffffffffffffffffffffffff1673ffffffffffffffffffffffffffffffffffffffff1673ffffffffffffffffffffffffffffffffffffffff16815260200160098201548152602001600a8201805480602002602001604051908101604052809291908181526020016000905b828210156113cf57838290600052602060002090600302016040518060600160405290816000820160009054906101000a900473ffffffffffffffffffffffffffffffffffffffff1673ffffffffffffffffffffffffffffffffffffffff1673ffffffffffffffffffffffffffffffffffffffff1681526020016001820154815260200160028201548152505081526020019060010190611333565b505050508152602001600b820180546113e7906132dd565b80601f0160208091040260200160405190810160405280929190818152602001828054611413906132dd565b80156114605780601f1061143557610100808354040283529160200191611460565b820191906000526020600020905b81548152906001019060200180831161144357829003601f168201915b5050505050815250509050919050565b6040518060600160405280602981526020016139f2602991396114b37ff4bb84e1768dd286358a736d195a0b228621173f655a73b89bf8b191ed0ba07d33610bae565b81906114f5576040517f08c379a00000000000000000000000000000000000000000000000000000000081526004016114ec9190612fcd565b60405180910390fd5b5060006003600085815260200190815260200160002090508060070160009054906101000a900460ff168061152e575042816002015411155b1561158b5760018160070160006101000a81548160ff0219169083151502179055506040517f08c379a0000000000000000000000000000000000000000000000000000000008152600401611582906136d6565b60405180910390fd5b60005b600660003373ffffffffffffffffffffffffffffffffffffffff1673ffffffffffffffffffffffffffffffffffffffff1681526020019081526020016000208054905081101561168c57600660003373ffffffffffffffffffffffffffffffffffffffff1673ffffffffffffffffffffffffffffffffffffffff1681526020019081526020016000208181548110611629576116286136f6565b5b9060005260206000200154826000015403611679576040517f08c379a000000000000000000000000000000000000000000000000000000000815260040161167090613771565b60405180910390fd5b80806116849061358a565b91505061158e565b5082156116b2578060030160008154809291906116a89061358a565b91905055506116cd565b8060040160008154809291906116c79061358a565b91905055505b600660003373ffffffffffffffffffffffffffffffffffffffff1673ffffffffffffffffffffffffffffffffffffffff16815260200190815260200160002084908060018154018082558091505060019003906000526020600020016000909190919091505550505050565b6060600060025467ffffffffffffffff8111156117595761175861327f565b5b60405190808252806020026020018201604052801561179257816020015b61177f61241b565b8152602001906001900390816117775790505b50905060005b600254811015611baa5760036000828152602001908152602001600020604051806101e00160405290816000820154815260200160018201548152602001600282015481526020016003820154815260200160048201548152602001600582018054611803906132dd565b80601f016020809104026020016040519081016040528092919081815260200182805461182f906132dd565b801561187c5780601f106118515761010080835404028352916020019161187c565b820191906000526020600020905b81548152906001019060200180831161185f57829003601f168201915b50505050508152602001600682018054611895906132dd565b80601f01602080910402602001604051908101604052809291908181526020018280546118c1906132dd565b801561190e5780601f106118e35761010080835404028352916020019161190e565b820191906000526020600020905b8154815290600101906020018083116118f157829003601f168201915b505050505081526020016007820160009054906101000a900460ff161515151581526020016007820160019054906101000a900460ff161515151581526020016007820160029054906101000a900460ff161515151581526020016007820160039054906101000a900473ffffffffffffffffffffffffffffffffffffffff1673ffffffffffffffffffffffffffffffffffffffff1673ffffffffffffffffffffffffffffffffffffffff1681526020016008820160009054906101000a900473ffffffffffffffffffffffffffffffffffffffff1673ffffffffffffffffffffffffffffffffffffffff1673ffffffffffffffffffffffffffffffffffffffff16815260200160098201548152602001600a8201805480602002602001604051908101604052809291908181526020016000905b82821015611adf57838290600052602060002090600302016040518060600160405290816000820160009054906101000a900473ffffffffffffffffffffffffffffffffffffffff1673ffffffffffffffffffffffffffffffffffffffff1673ffffffffffffffffffffffffffffffffffffffff1681526020016001820154815260200160028201548152505081526020019060010190611a43565b505050508152602001600b82018054611af7906132dd565b80601f0160208091040260200160405190810160405280929190818152602001828054611b23906132dd565b8015611b705780601f10611b4557610100808354040283529160200191611b70565b820191906000526020600020905b815481529060010190602001808311611b5357829003601f168201915b505050505081525050828281518110611b8c57611b8b6136f6565b5b60200260200101819052508080611ba29061358a565b915050611798565b508091505090565b600080600560003373ffffffffffffffffffffffffffffffffffffffff1673ffffffffffffffffffffffffffffffffffffffff1681526020019081526020016000205411905090565b611c048261076c565b611c0d81611f41565b611c17838361203d565b505050565b6000349050611c4b7ff4bb84e1768dd286358a736d195a0b228621173f655a73b89bf8b191ed0ba07d33610bae565b611e2757600081600560003373ffffffffffffffffffffffffffffffffffffffff1673ffffffffffffffffffffffffffffffffffffffff16815260200190815260200160002054611c9c91906131ae565b9050671bc16d674ec800008110611da057611cd77ff4bb84e1768dd286358a736d195a0b228621173f655a73b89bf8b191ed0ba07d3361211f565b611d017fffa60083152bd11704a80cc8c7a409dad8aa74288b454a3ba0e94c0abc7cf1683361211f565b80600460003373ffffffffffffffffffffffffffffffffffffffff1673ffffffffffffffffffffffffffffffffffffffff1681526020019081526020016000208190555081600560003373ffffffffffffffffffffffffffffffffffffffff1673ffffffffffffffffffffffffffffffffffffffff1681526020019081526020016000206000828254611d9491906131ae565b92505081905550611e21565b611dca7fffa60083152bd11704a80cc8c7a409dad8aa74288b454a3ba0e94c0abc7cf1683361211f565b81600560003373ffffffffffffffffffffffffffffffffffffffff1673ffffffffffffffffffffffffffffffffffffffff1681526020019081526020016000206000828254611e1991906131ae565b925050819055505b50611ed4565b80600560003373ffffffffffffffffffffffffffffffffffffffff1673ffffffffffffffffffffffffffffffffffffffff1681526020019081526020016000206000828254611e7691906131ae565b9250508190555080600460003373ffffffffffffffffffffffffffffffffffffffff1673ffffffffffffffffffffffffffffffffffffffff1681526020019081526020016000206000828254611ecc91906131ae565b925050819055505b50565b60007f01ffc9a7000000000000000000000000000000000000000000000000000000007bffffffffffffffffffffffffffffffffffffffffffffffffffffffff1916827bffffffffffffffffffffffffffffffffffffffffffffffffffffffff1916149050919050565b611f5281611f4d612035565b61212d565b50565b611f5f8282610bae565b61203157600180600084815260200190815260200160002060000160008373ffffffffffffffffffffffffffffffffffffffff1673ffffffffffffffffffffffffffffffffffffffff16815260200190815260200160002060006101000a81548160ff021916908315150217905550611fd6612035565b73ffffffffffffffffffffffffffffffffffffffff168173ffffffffffffffffffffffffffffffffffffffff16837f2f8788117e7eff1d82e926ec794901d17c78024a50270940304540a733656f0d60405160405180910390a45b5050565b600033905090565b6120478282610bae565b1561211b5760006001600084815260200190815260200160002060000160008373ffffffffffffffffffffffffffffffffffffffff1673ffffffffffffffffffffffffffffffffffffffff16815260200190815260200160002060006101000a81548160ff0219169083151502179055506120c0612035565b73ffffffffffffffffffffffffffffffffffffffff168173ffffffffffffffffffffffffffffffffffffffff16837ff6391f5c32d9c69d2a47ea670b442974b53935d1edc7fd64eb21e047a839171b60405160405180910390a45b5050565b6121298282611f55565b5050565b6121378282610bae565b6121ae57612144816121b2565b6121528360001c60206121df565b604051602001612163929190613865565b6040516020818303038152906040526040517f08c379a00000000000000000000000000000000000000000000000000000000081526004016121a59190612fcd565b60405180910390fd5b5050565b60606121d88273ffffffffffffffffffffffffffffffffffffffff16601460ff166121df565b9050919050565b6060600060028360026121f2919061389f565b6121fc91906131ae565b67ffffffffffffffff8111156122155761221461327f565b5b6040519080825280601f01601f1916602001820160405280156122475781602001600182028036833780820191505090505b5090507f30000000000000000000000000000000000000000000000000000000000000008160008151811061227f5761227e6136f6565b5b60200101907effffffffffffffffffffffffffffffffffffffffffffffffffffffffffffff1916908160001a9053507f7800000000000000000000000000000000000000000000000000000000000000816001815181106122e3576122e26136f6565b5b60200101907effffffffffffffffffffffffffffffffffffffffffffffffffffffffffffff1916908160001a90535060006001846002612323919061389f565b61232d91906131ae565b90505b60018111156123cd577f3031323334353637383961626364656600000000000000000000000000000000600f86166010811061236f5761236e6136f6565b5b1a60f81b828281518110612386576123856136f6565b5b60200101907effffffffffffffffffffffffffffffffffffffffffffffffffffffffffffff1916908160001a905350600485901c9450806123c6906138e1565b9050612330565b5060008414612411576040517f08c379a000000000000000000000000000000000000000000000000000000000815260040161240890613956565b60405180910390fd5b8091505092915050565b604051806101e0016040528060008152602001600081526020016000815260200160008152602001600081526020016060815260200160608152602001600015158152602001600015158152602001600015158152602001600073ffffffffffffffffffffffffffffffffffffffff168152602001600073ffffffffffffffffffffffffffffffffffffffff1681526020016000815260200160608152602001606081525090565b600080fd5b600080fd5b60007fffffffff0000000000000000000000000000000000000000000000000000000082169050919050565b612502816124cd565b811461250d57600080fd5b50565b60008135905061251f816124f9565b92915050565b60006020828403121561253b5761253a6124c3565b5b600061254984828501612510565b91505092915050565b60008115159050919050565b61256781612552565b82525050565b6000602082019050612582600083018461255e565b92915050565b6000819050919050565b61259b81612588565b82525050565b60006020820190506125b66000830184612592565b92915050565b600081519050919050565b600082825260208201905092915050565b6000819050602082019050919050565b6125f181612588565b82525050565b600061260383836125e8565b60208301905092915050565b6000602082019050919050565b6000612627826125bc565b61263181856125c7565b935061263c836125d8565b8060005b8381101561266d57815161265488826125f7565b975061265f8361260f565b925050600181019050612640565b5085935050505092915050565b60006020820190508181036000830152612694818461261c565b905092915050565b6000819050919050565b6126af8161269c565b82525050565b60006020820190506126ca60008301846126a6565b92915050565b6126d98161269c565b81146126e457600080fd5b50565b6000813590506126f6816126d0565b92915050565b600060208284031215612712576127116124c3565b5b6000612720848285016126e7565b91505092915050565b600073ffffffffffffffffffffffffffffffffffffffff82169050919050565b600061275482612729565b9050919050565b61276481612749565b811461276f57600080fd5b50565b6000813590506127818161275b565b92915050565b6000806040838503121561279e5761279d6124c3565b5b60006127ac858286016126e7565b92505060206127bd85828601612772565b9150509250929050565b6127d081612588565b81146127db57600080fd5b50565b6000813590506127ed816127c7565b92915050565b6000806040838503121561280a576128096124c3565b5b6000612818858286016127de565b9250506020612829858286016127de565b9150509250929050565b600080fd5b600080fd5b600080fd5b60008083601f84011261285857612857612833565b5b8235905067ffffffffffffffff81111561287557612874612838565b5b6020830191508360018202830111156128915761289061283d565b5b9250929050565b60008060008060008060008060a0898b0312156128b8576128b76124c3565b5b600089013567ffffffffffffffff8111156128d6576128d56124c8565b5b6128e28b828c01612842565b9850985050602089013567ffffffffffffffff811115612905576129046124c8565b5b6129118b828c01612842565b965096505060406129248b828c01612772565b94505060606129358b828c016127de565b935050608089013567ffffffffffffffff811115612956576129556124c8565b5b6129628b828c01612842565b92509250509295985092959890939650565b60006020828403121561298a576129896124c3565b5b6000612998848285016127de565b91505092915050565b600081519050919050565b600082825260208201905092915050565b60005b838110156129db5780820151818401526020810190506129c0565b60008484015250505050565b6000601f19601f8301169050919050565b6000612a03826129a1565b612a0d81856129ac565b9350612a1d8185602086016129bd565b612a26816129e7565b840191505092915050565b612a3a81612552565b82525050565b6000612a4b82612729565b9050919050565b612a5b81612a40565b82525050565b612a6a81612749565b82525050565b600081519050919050565b600082825260208201905092915050565b6000819050602082019050919050565b606082016000820151612ab26000850182612a61565b506020820151612ac560208501826125e8565b506040820151612ad860408501826125e8565b50505050565b6000612aea8383612a9c565b60608301905092915050565b6000602082019050919050565b6000612b0e82612a70565b612b188185612a7b565b9350612b2383612a8c565b8060005b83811015612b54578151612b3b8882612ade565b9750612b4683612af6565b925050600181019050612b27565b5085935050505092915050565b60006101e083016000830151612b7a60008601826125e8565b506020830151612b8d60208601826125e8565b506040830151612ba060408601826125e8565b506060830151612bb360608601826125e8565b506080830151612bc660808601826125e8565b5060a083015184820360a0860152612bde82826129f8565b91505060c083015184820360c0860152612bf882826129f8565b91505060e0830151612c0d60e0860182612a31565b50610100830151612c22610100860182612a31565b50610120830151612c37610120860182612a31565b50610140830151612c4c610140860182612a52565b50610160830151612c61610160860182612a61565b50610180830151612c766101808601826125e8565b506101a08301518482036101a0860152612c908282612b03565b9150506101c08301518482036101c0860152612cac82826129f8565b9150508091505092915050565b60006020820190508181036000830152612cd38184612b61565b905092915050565b612ce481612552565b8114612cef57600080fd5b50565b600081359050612d0181612cdb565b92915050565b60008060408385031215612d1e57612d1d6124c3565b5b6000612d2c858286016127de565b9250506020612d3d85828601612cf2565b9150509250929050565b600081519050919050565b600082825260208201905092915050565b6000819050602082019050919050565b60006101e083016000830151612d8c60008601826125e8565b506020830151612d9f60208601826125e8565b506040830151612db260408601826125e8565b506060830151612dc560608601826125e8565b506080830151612dd860808601826125e8565b5060a083015184820360a0860152612df082826129f8565b91505060c083015184820360c0860152612e0a82826129f8565b91505060e0830151612e1f60e0860182612a31565b50610100830151612e34610100860182612a31565b50610120830151612e49610120860182612a31565b50610140830151612e5e610140860182612a52565b50610160830151612e73610160860182612a61565b50610180830151612e886101808601826125e8565b506101a08301518482036101a0860152612ea28282612b03565b9150506101c08301518482036101c0860152612ebe82826129f8565b9150508091505092915050565b6000612ed78383612d73565b905092915050565b6000602082019050919050565b6000612ef782612d47565b612f018185612d52565b935083602082028501612f1385612d63565b8060005b85811015612f4f5784840389528151612f308582612ecb565b9450612f3b83612edf565b925060208a01995050600181019050612f17565b50829750879550505050505092915050565b60006020820190508181036000830152612f7b8184612eec565b905092915050565b600082825260208201905092915050565b6000612f9f826129a1565b612fa98185612f83565b9350612fb98185602086016129bd565b612fc2816129e7565b840191505092915050565b60006020820190508181036000830152612fe78184612f94565b905092915050565b7f416363657373436f6e74726f6c3a2063616e206f6e6c792072656e6f756e636560008201527f20726f6c657320666f722073656c660000000000000000000000000000000000602082015250565b600061304b602f83612f83565b915061305682612fef565b604082019050919050565b6000602082019050818103600083015261307a8161303e565b9050919050565b7f52657175697265642066756e6473206172652070726f76696465642e00000000600082015250565b60006130b7601c83612f83565b91506130c282613081565b602082019050919050565b600060208201905081810360008301526130e6816130aa565b9050919050565b7f546869732070726f706f73616c206973206e6f742073656c656374656420666f60008201527f722066756e64696e672e00000000000000000000000000000000000000000000602082015250565b6000613149602a83612f83565b9150613154826130ed565b604082019050919050565b600060208201905081810360008301526131788161313c565b9050919050565b7f4e487b7100000000000000000000000000000000000000000000000000000000600052601160045260246000fd5b60006131b982612588565b91506131c483612588565b92508282019050808211156131dc576131db61317f565b5b92915050565b7f596f75206e65656420746f206164642035204d4154494320746f20637265617460008201527f6520612070726f706f73616c0000000000000000000000000000000000000000602082015250565b600061323e602c83612f83565b9150613249826131e2565b604082019050919050565b6000602082019050818103600083015261326d81613231565b9050919050565b600082905092915050565b7f4e487b7100000000000000000000000000000000000000000000000000000000600052604160045260246000fd5b7f4e487b7100000000000000000000000000000000000000000000000000000000600052602260045260246000fd5b600060028204905060018216806132f557607f821691505b602082108103613308576133076132ae565b5b50919050565b60008190508160005260206000209050919050565b60006020601f8301049050919050565b600082821b905092915050565b6000600883026133707fffffffffffffffffffffffffffffffffffffffffffffffffffffffffffffffff82613333565b61337a8683613333565b95508019841693508086168417925050509392505050565b6000819050919050565b60006133b76133b26133ad84612588565b613392565b612588565b9050919050565b6000819050919050565b6133d18361339c565b6133e56133dd826133be565b848454613340565b825550505050565b600090565b6133fa6133ed565b6134058184846133c8565b505050565b5b818110156134295761341e6000826133f2565b60018101905061340b565b5050565b601f82111561346e5761343f8161330e565b61344884613323565b81016020851015613457578190505b61346b61346385613323565b83018261340a565b50505b505050565b600082821c905092915050565b600061349160001984600802613473565b1980831691505092915050565b60006134aa8383613480565b9150826002028217905092915050565b6134c48383613274565b67ffffffffffffffff8111156134dd576134dc61327f565b5b6134e782546132dd565b6134f282828561342d565b6000601f831160018114613521576000841561350f578287013590505b613519858261349e565b865550613581565b601f19841661352f8661330e565b60005b8281101561355757848901358255600182019150602085019450602081019050613532565b868310156135745784890135613570601f891682613480565b8355505b6001600288020188555050505b50505050505050565b600061359582612588565b91507fffffffffffffffffffffffffffffffffffffffffffffffffffffffffffffffff82036135c7576135c661317f565b5b600182019050919050565b7f52657175697265642066756e647320617265206e6f74206d65742e20506c656160008201527f73652070726f76696465722066756e64732e0000000000000000000000000000602082015250565b600061362e603283612f83565b9150613639826135d2565b604082019050919050565b6000602082019050818103600083015261365d81613621565b9050919050565b7f54696d6520706572696f64206f6620746869732070726f706f73616c2069732060008201527f656e6465642e0000000000000000000000000000000000000000000000000000602082015250565b60006136c0602683612f83565b91506136cb82613664565b604082019050919050565b600060208201905081810360008301526136ef816136b3565b9050919050565b7f4e487b7100000000000000000000000000000000000000000000000000000000600052603260045260246000fd5b7f596f752063616e206f6e6c7920766f7465206f6e63652e000000000000000000600082015250565b600061375b601783612f83565b915061376682613725565b602082019050919050565b6000602082019050818103600083015261378a8161374e565b9050919050565b600081905092915050565b7f416363657373436f6e74726f6c3a206163636f756e7420000000000000000000600082015250565b60006137d2601783613791565b91506137dd8261379c565b601782019050919050565b60006137f3826129a1565b6137fd8185613791565b935061380d8185602086016129bd565b80840191505092915050565b7f206973206d697373696e6720726f6c6520000000000000000000000000000000600082015250565b600061384f601183613791565b915061385a82613819565b601182019050919050565b6000613870826137c5565b915061387c82856137e8565b915061388782613842565b915061389382846137e8565b91508190509392505050565b60006138aa82612588565b91506138b583612588565b92508282026138c381612588565b915082820484148315176138da576138d961317f565b5b5092915050565b60006138ec82612588565b9150600082036138ff576138fe61317f565b5b600182039050919050565b7f537472696e67733a20686578206c656e67746820696e73756666696369656e74600082015250565b6000613940602083612f83565b915061394b8261390a565b602082019050919050565b6000602082019050818103600083015261396f81613933565b905091905056fe4f6e6c79205374616b65686f6c6465722063616e2063616c6c20746869732066756e6374696f6e2e4f6e6c79206d656d626572732063616e20637265617465206e65772070726f706f73616c2e4f6e6c79205374616b65686f6c646572732061726520616c6c6f77656420746f2072656c656173652066756e64734f6e6c79205374616b65686f6c646572732063616e20766f7465206f6e20612070726f706f73616c2e4f6e6c79204d656d626572732063616e2063616c6c20746869732066756e6374696f6e2e4f6e6c79205374616b65686f6c646572732063616e206d616b65207061796d656e7473a26469706673582212201051951c7dde1f609c8a4ff4c2e934b48a4bfb312416ddd1d2fc2b877d497cf564736f6c63430008130033",
  "immutableReferences": {},
  "source": "// SPDX-License-Identifier: MIT\r\n// /contracts/FundingDao.sol\r\npragma solidity ^0.8.0;\r\n\r\nimport \"@openzeppelin/contracts/access/AccessControl.sol\";\r\nimport \"@openzeppelin/contracts/security/ReentrancyGuard.sol\";\r\n\r\ncontract FundingDAO is ReentrancyGuard, AccessControl {\r\n    bytes32 public constant MEMBER = keccak256(\"MEMBER\");\r\n    bytes32 public constant STAKEHOLDER = keccak256(\"STAKEHOLDER\");\r\n\r\n    uint32 constant votingPeriod = 3 days;\r\n\r\n    uint256 public proposalsCount = 0;\r\n\r\n    struct Proposal {\r\n        uint256 id;\r\n        uint256 amount;\r\n        uint256 livePeriod;\r\n        uint256 voteInFavor;\r\n        uint256 voteAgainst;\r\n        string title;\r\n        string desc;\r\n        bool isCompleted;\r\n        bool paid;\r\n        bool isPaid;\r\n        address payable receiverAddress;\r\n        address proposer;\r\n        uint256 totalFundRaised;\r\n        Funding[] funders;\r\n        string imageId;\r\n    }\r\n\r\n    struct Funding {\r\n        address payer;\r\n        uint256 amount;\r\n        uint256 timestamp;\r\n    }\r\n\r\n    mapping(uint256 => Proposal) private proposals;\r\n    mapping(address => uint256) private stakeholders;\r\n    mapping(address => uint256) private members;\r\n    mapping(address => uint256[]) private votes;\r\n\r\n    event NewMember(address indexed fromAddress, uint256 amount);\r\n    event NewProposal(address indexed proposer, uint256 amount);\r\n    event Payment(\r\n        address indexed stakeholder,\r\n        address indexed projectAddress,\r\n        uint256 amount\r\n    );\r\n\r\n    modifier onlyMember(string memory message) {\r\n        require(hasRole(MEMBER, msg.sender), message);\r\n        _;\r\n    }\r\n\r\n    modifier onlyStakeholder(string memory message) {\r\n        require(hasRole(STAKEHOLDER, msg.sender), message);\r\n        _;\r\n    }\r\n\r\n    function createProposal(\r\n        string calldata title,\r\n        string calldata desc,\r\n        address receiverAddress,\r\n        uint256 amount,\r\n        string calldata imageId\r\n    ) public payable onlyMember(\"Only members can create new proposal.\") {\r\n        require(\r\n            msg.value == 5 * 10**18,\r\n            \"You need to add 5 MATIC to create a proposal\"\r\n        );\r\n        uint256 proposalId = proposalsCount;\r\n        Proposal storage proposal = proposals[proposalId];\r\n        proposal.id = proposalId;\r\n        proposal.desc = desc;\r\n        proposal.title = title;\r\n        proposal.receiverAddress = payable(receiverAddress);\r\n        proposal.proposer = payable(msg.sender);\r\n        proposal.amount = amount;\r\n        proposal.livePeriod = block.timestamp + votingPeriod;\r\n        proposal.isPaid = false;\r\n        proposal.isCompleted = false;\r\n        proposal.imageId = imageId;\r\n        proposalsCount++;\r\n        emit NewProposal(msg.sender, amount);\r\n    }\r\n\r\n    function getAllProposals() public view returns (Proposal[] memory) {\r\n        Proposal[] memory tempProposals = new Proposal[](proposalsCount);\r\n        for (uint256 index = 0; index < proposalsCount; index++) {\r\n            tempProposals[index] = proposals[index];\r\n        }\r\n        return tempProposals;\r\n    }\r\n\r\n    function getProposal(uint256 proposalId)\r\n        public\r\n        view\r\n        returns (Proposal memory)\r\n    {\r\n        return proposals[proposalId];\r\n    }\r\n\r\n    function getVotes()\r\n        public\r\n        view\r\n        onlyStakeholder(\"Only Stakeholder can call this function.\")\r\n        returns (uint256[] memory)\r\n    {\r\n        return votes[msg.sender];\r\n    }\r\n\r\n    function getStakeholderBal()\r\n        public\r\n        view\r\n        onlyStakeholder(\"Only Stakeholder can call this function.\")\r\n        returns (uint256)\r\n    {\r\n        return stakeholders[msg.sender];\r\n    }\r\n\r\n    function getMemberBal()\r\n        public\r\n        view\r\n        onlyMember(\"Only Members can call this function.\")\r\n        returns (uint256)\r\n    {\r\n        return members[msg.sender];\r\n    }\r\n\r\n    function isStakeholder() public view returns (bool) {\r\n        return stakeholders[msg.sender] > 0;\r\n    }\r\n\r\n    function isMember() public view returns (bool) {\r\n        return members[msg.sender] > 0;\r\n    }\r\n\r\n    function vote(uint256 proposalId, bool inFavour)\r\n        public\r\n        onlyStakeholder(\"Only Stakeholders can vote on a proposal.\")\r\n    {\r\n        Proposal storage proposal = proposals[proposalId];\r\n\r\n        if (proposal.isCompleted || proposal.livePeriod <= block.timestamp) {\r\n            proposal.isCompleted = true;\r\n            revert(\"Time period of this proposal is ended.\");\r\n        }\r\n        for (uint256 i = 0; i < votes[msg.sender].length; i++) {\r\n            if (proposal.id == votes[msg.sender][i])\r\n                revert(\"You can only vote once.\");\r\n        }\r\n\r\n        if (inFavour) proposal.voteInFavor++;\r\n        else proposal.voteAgainst++;\r\n\r\n        votes[msg.sender].push(proposalId);\r\n    }\r\n\r\n    function provideFunds(uint256 proposalId, uint256 fundAmount)\r\n        public\r\n        payable\r\n        onlyStakeholder(\"Only Stakeholders can make payments\")\r\n    {\r\n        Proposal storage proposal = proposals[proposalId];\r\n\r\n        if (proposal.isPaid) revert(\"Required funds are provided.\");\r\n        if (proposal.voteInFavor <= proposal.voteAgainst)\r\n            revert(\"This proposal is not selected for funding.\");\r\n        if (proposal.totalFundRaised >= proposal.amount)\r\n            revert(\"Required funds are provided.\");\r\n        proposal.totalFundRaised += fundAmount;\r\n        proposal.funders.push(Funding(msg.sender, fundAmount, block.timestamp));\r\n        if (proposal.totalFundRaised >= proposal.amount) {\r\n            proposal.isCompleted = true;\r\n        }\r\n    }\r\n\r\n    function releaseFunding(uint256 proposalId)\r\n        public\r\n        payable\r\n        onlyStakeholder(\"Only Stakeholders are allowed to release funds\")\r\n    {\r\n        Proposal storage proposal = proposals[proposalId];\r\n\r\n        if (proposal.totalFundRaised <= proposal.amount) {\r\n            revert(\"Required funds are not met. Please provider funds.\");\r\n        }\r\n        proposal.receiverAddress.transfer(proposal.totalFundRaised);\r\n        proposal.isPaid = true;\r\n        proposal.isCompleted = true;\r\n    }\r\n\r\n    function createStakeholder() public payable {\r\n        uint256 amount = msg.value;\r\n        if (!hasRole(STAKEHOLDER, msg.sender)) {\r\n            uint256 total = members[msg.sender] + amount;\r\n            if (total >= 2 ether) {\r\n                _setupRole(STAKEHOLDER, msg.sender);\r\n                _setupRole(MEMBER, msg.sender);\r\n                stakeholders[msg.sender] = total;\r\n                members[msg.sender] += amount;\r\n            } else {\r\n                _setupRole(MEMBER, msg.sender);\r\n                members[msg.sender] += amount;\r\n            }\r\n        } else {\r\n            members[msg.sender] += amount;\r\n            stakeholders[msg.sender] += amount;\r\n        }\r\n    }\r\n}",
  "sourcePath": "C:\\Users\\ANTI\\dappprojects\\DAOS\\funding-dao\\contracts\\FundingDao.sol",
  "compiler": {
    "name": "solc",
    "version": "0.8.19+commit.7dd6d404.Emscripten.clang"
  },
  "schemaVersion": "3.4.11",
  "updatedAt": "2023-04-11T15:13:35.602Z",
  "devdoc": {
    "events": {
      "RoleAdminChanged(bytes32,bytes32,bytes32)": {
        "details": "Emitted when `newAdminRole` is set as ``role``'s admin role, replacing `previousAdminRole` `DEFAULT_ADMIN_ROLE` is the starting admin for all roles, despite {RoleAdminChanged} not being emitted signaling this. _Available since v3.1._"
      },
      "RoleGranted(bytes32,address,address)": {
        "details": "Emitted when `account` is granted `role`. `sender` is the account that originated the contract call, an admin role bearer except when using {AccessControl-_setupRole}."
      },
      "RoleRevoked(bytes32,address,address)": {
        "details": "Emitted when `account` is revoked `role`. `sender` is the account that originated the contract call:   - if using `revokeRole`, it is the admin role bearer   - if using `renounceRole`, it is the role bearer (i.e. `account`)"
      }
    },
    "kind": "dev",
    "methods": {
      "getRoleAdmin(bytes32)": {
        "details": "Returns the admin role that controls `role`. See {grantRole} and {revokeRole}. To change a role's admin, use {_setRoleAdmin}."
      },
      "grantRole(bytes32,address)": {
        "details": "Grants `role` to `account`. If `account` had not been already granted `role`, emits a {RoleGranted} event. Requirements: - the caller must have ``role``'s admin role. May emit a {RoleGranted} event."
      },
      "hasRole(bytes32,address)": {
        "details": "Returns `true` if `account` has been granted `role`."
      },
      "renounceRole(bytes32,address)": {
        "details": "Revokes `role` from the calling account. Roles are often managed via {grantRole} and {revokeRole}: this function's purpose is to provide a mechanism for accounts to lose their privileges if they are compromised (such as when a trusted device is misplaced). If the calling account had been revoked `role`, emits a {RoleRevoked} event. Requirements: - the caller must be `account`. May emit a {RoleRevoked} event."
      },
      "revokeRole(bytes32,address)": {
        "details": "Revokes `role` from `account`. If `account` had been granted `role`, emits a {RoleRevoked} event. Requirements: - the caller must have ``role``'s admin role. May emit a {RoleRevoked} event."
      },
      "supportsInterface(bytes4)": {
        "details": "See {IERC165-supportsInterface}."
      }
    },
    "version": 1
  },
  "userdoc": {
    "kind": "user",
    "methods": {},
    "version": 1
  }
}